:020000040800F2
:10000000680600208901000891010008930100089A
:100010009501000897010008990100080000000000
:100020000000000000000000000000009B0100082C
:100030009D010008000000009F010008A1010008C8
:10004000A3010008A3010008A3010008A301000800
:10005000A3010008A3010008A3010008A3010008F0
:10006000A3010008A3010008A3010008A3010008E0
:10007000A3010008A3010008A3010008A3010008D0
:10008000A3010008A3010008A3010008A3010008C0
:10009000A3010008A3010008A3010008A3010008B0
:1000A000A3010008A3010008A3010008A3010008A0
:1000B000A3010008A3010008A3010008A301000890
:1000C000A3010008A3010008A3010008A301000880
:1000D000A3010008A3010008A3010008A301000870
:1000E000A3010008A3010008A301000800F002F822
:1000F00000F03AF80AA090E8000C82448344AAF188
:100100000107DA4501D100F02FF8AFF2090EBAE885
:100110000F0013F0010F18BFFB1A43F0010318473B
:10012000C00D0000E00D0000103A24BF78C878C16F
:10013000FAD8520724BF30C830C144BF04680C60ED
:10014000704700000023002400250026103A28BF35
:1001500078C1FBD8520728BF30C148BF0B60704739
:100160001FB51FBD10B510BD00F031F81146FFF7E7
:10017000F7FF00F081FA00F04FF803B4FFF7F2FF49
:1001800003BC00F057F800000948804709480047C1
:10019000FEE7FEE7FEE7FEE7FEE7FEE7FEE7FEE737
:1001A000FEE7FEE704480549054A064B7047000094
:1001B00091050008ED000008680000206806002096
:1001C000680200206802002070477047704775463B
:1001D00000F02CF8AE4605006946534620F00700B3
:1001E000854618B020B5FFF7DDFFBDE820404FF091
:1001F00000064FF000074FF000084FF0000B21F011
:100200000701AC46ACE8C009ACE8C009ACE8C009DD
:10021000ACE8C0098D46704710B50446AFF30080C6
:100220002046BDE81040FFF7A8BF00000048704717
:100230000800002001491820ABBEFEE7260002009E
:10024000704710B50446A01CC4B2102141EA241026
:1002500000F0D2F804F00F0000F0CEF810BD00005E
:1002600000B540200C490860012000F0CDF92020A5
:1002700009490860012000F0C7F940200649091D1E
:100280000860032000F0C0F920200349091D086020
:10029000782000F019F800BD100C014000B5402096
:1002A00008490860012000F0AFF920200549091F26
:1002B0000860032000F0A8F940200249091F0860E7
:1002C00000BD0000140C014030B503461C4600255B
:1002D0001AE020201B49086004F0800010B940207B
:1002E000086003E040201749091F08606006040EFB
:1002F000012000F089F920201249091F086001201F
:1003000000F082F9681CC5B2082DE2DB20200D49FF
:100310000860012000F078F940200A49091F0860B0
:10032000012000F071F920200649091F0860012012
:1003300000F06AF9202003490860012000F064F908
:1003400030BD0000140C01400B48806940F00800EB
:10035000094988610948006820F07F400749086022
:100360000846006840F0EE6008604FF6FF700349F1
:100370000C3108607047000000100240000C014082
:1003800030B5002410E0204600F050F80020FFF7C0
:1003900058FF002504E0002000F03BF8681CC5B2BF
:1003A000802DF8DB601CC4B2082CECDB30BD30B50E
:1003B000002410E0204600F039F80020FFF741FF4C
:1003C000002504E0FF2000F024F8681CC5B2802D51
:1003D000F8DB601CC4B2082CECDB30BD10B5002487
:1003E00005E00449085D00F007F8601CC4B2192C50
:1003F000F7DB10BDC406000810B50446FFF730FF58
:100400000020FFF761FF2046FFF75EFFFFF746FF82
:1004100010BD10B50446FFF723FF4020FFF754FF3F
:100420002046FFF751FFFFF739FF10BD10B5044616
:1004300004F1B001C8B2FFF7DFFF10BDF0B504460C
:10044000002514E02846FFF7F1FF0020FFF7F9FE32
:10045000002608E014F8017BF843C7B23846FFF7DE
:10046000D8FF701CC6B2802EF4DB681CC5B2082D04
:10047000E8DBF0BD70B50446002511E02846FFF723
:10048000D5FF0020FFF7DDFE002605E014F8010B84
:10049000FFF7BFFF701CC6B2802EF7DB681CC5B229
:1004A000082DEBDB70BD10B500F002F810BD0000A8
:1004B0000CB50020019000903348006840F4803073
:1004C0003149086000BF3048006800F400300090F7
:1004D0000198401C0190009818B90198B0F5A06FE0
:1004E000F1D12948006800F4003010B101200090DB
:1004F00001E0002000900098012843D123480068C3
:1005000040F01000214908600846006820F0030010
:1005100008600846006840F0020008601A48406819
:10052000194948600846406848600846406840F4F9
:10053000806048600846406820F47C1048600846A7
:10054000406840F4E81048600846006840F0807059
:10055000086000BF0C48006800F000700028F9D067
:100560000948406820F00300074948600846406891
:1005700040F00200486000BF0348406800F00C00F3
:100580000828F9D10CBD00000010024000200240F4
:1005900010B51348006840F0010011490860084692
:1005A0004068104908400E494860084600680E49F6
:1005B00008400B4908600846006820F48020086065
:1005C0000846406820F4FE0048604FF41F00886031
:1005D000FFF769FF4FF000600449086010BD00009C
:1005E000001002400000FFF8FFFFF6FE08ED00E0FB
:1005F000002106E0002200E0521CB2F5617FFBD32F
:10060000491C8142F6D370470146002030E0421C6D
:10061000D0B2421CD0B2421CD0B2421CD0B2421C5A
:10062000D0B2421CD0B2421CD0B2421CD0B2421C4A
:10063000D0B2421CD0B2421CD0B2421CD0B2421C3A
:10064000D0B2421CD0B2421CD0B2421CD0B2421C2A
:10065000D0B2421CD0B2421CD0B2421CD0B2421C1A
:10066000D0B2421CD0B2421CD0B2421CD0B2491E01
:100670000029CCD170470000104811490860FFF7ED
:1006800063FEFFF7ABFEFFF792FE42F21070FFF73A
:10069000AFFFFFF775FE0FE009480068FFF7EAFEBD
:1006A00042F21070FFF7A4FF05480068FFF7C6FE8E
:1006B00042F21070FFF79CFFEEE70000DD06000835
:1006C00000000020AED580A83FD300408D1420024A
:1006D000A1C0DA128166D9F1DB30A4A6AF00000018
:1006E0000000000000000000000080C0E0607030EA
:1006F000303818181818D8F8F0F0F0E0E0C0C0C092
:1007000000000000000000000000000000000000E9
:1007100000000000000000000000000000000000D9
:100720000000000000000000000000000000008049
:10073000C0F0B81000E0C080808000F00000000031
:1007400000000000000000000000000000000000A9
:100750000000000000000000000000000000000099
:1007600000000000C0F0FCFCFEFB010000000000E7
:1007700000000000000103030303030383FFFFFFE6
:100780007F1C38F0C00000000000000000000000E6
:100790000000000000000000000000000000000059
:1007A0000000000000000000000000181C3EE7C32D
:1007B00081FFFF1818FFFF18999BDBFF0000000066
:1007C0000000000000000000000000000000000029
:1007D0000000000000000000000000000000000019
:1007E00000E0FC3F0700FFFFFF7F0F0F0F0F0FEF31
:1007F000EFEFCF0F0F0F0F0F0F0F0F0F0F070701A7
:1008000000000000073FFCE00000000000000000C6
:1008100000000000000002F63CF0E33604F0E0CCFB
:1008200044663313000000000000000000000001D7
:10083000071F1900000707030101000F080000004F
:1008400000000000000000004040E0FE4262FE6246
:1008500042FEFE4240C00000000000000000000018
:10086000FCFF030000000000000000000000003F4B
:100870003F3F1F1F1E3E3C7C78F8F0F0E0E0C0C018
:10088000C0C0C0C0C0F8FFFFFC00000000000000B6
:10089000000000000000003F30340C1B033F3F0706
:1008A0000F1B3303010000000000000086C6ECECC3
:1008B000C0C0CFCF0C0C0C8CECCC7EE30000000051
:1008C00000000000000000000000000F0C0C0F0CE6
:1008D0000C0F0F00303F000000000000000000007F
:1008E0001FFFE000000000000000008080C0C0FC8E
:1008F000FCFCFCF8F8FCFCFEFEFFEFEFE7C7C3834F
:1009000003030303031FFFFF3F000000000000007C
:1009100000000000000008888888BE88888888F861
:10092000DE42602000000000000000033F3F18FF8F
:10093000FF8C8CFF7E7EDF1BF1F000FFF8000000D3
:10094000000000000000000000FC00008080FEFEAF
:100950008080808080E00000000000000000000037
:1009600000031F7CF0800000E0FCFFFF1F0703076F
:100970000707030101010101010101010307071F2D
:10098000FFFEFCE0F07C1F03000000000000000000
:1009900000000000000020202424242424242424F7
:1009A00024242420000000000000000000000001BA
:1009B000010181818080808383C1C2E34300000004
:1009C0000000000000000000003F1C0703017F7FC3
:1009D0000101010101000000000000000000000012
:1009E0000000000001070E1C78FFFFFFFE7C78F07E
:1009F000F0F0F0E000000000000000E0E0F0F8FCA3
:100A00007F3F0F0701000000000000000000000011
:100A100000000000000000000000000000000000D6
:100A20000000000000000000000000FF03FFFFFFC7
:100A3000FF00FF01FD01FFFFCDCC7C3C0C0000005E
:100A400000000000000000000000000000000000A6
:100A50000000000000000000000000000000000096
:100A60000000000000000000000000010303070672
:100A7000060C0C0C0C0C0C0C060607030301000002
:100A80000000000000000000000000000000000066
:100A90000000000000000000000000000000000056
:100AA00000000000000000000000001F181F1F1FB2
:100AB0001F383F001F007F3F0D070F7C30000000F4
:100AC0000000000000000000000000000000000026
:100AD00000000000000000000000000000FF010115
:100AE00001010101010101010101010101010101F6
:100AF00001010101010101010101010101010101E6
:100B000001010101010101010101010101010101D5
:100B100001010101010101010101010101010101C5
:100B200001010101010101010101010101010101B5
:100B300001010101010101010101010101010101A5
:100B40000101010101010101010101010101010195
:100B5000010101010101010101010101FFFF00008B
:100B60000000000000000000000000000000000085
:100B700020440800184828C808284818004040FCAD
:100B80004040FC0000F80000FC004040A090888439
:100B9000889020404000004044D820F0ACA8E8B83D
:100BA000A8E0000000C07C5454545454547C40408D
:100BB0000000F0909090FC909090F00000008088F1
:100BC00088888888E8A8988C888000000000000049
:100BD000000000000000000000000000FFFF000017
:100BE0000000000000000000000000000000000005
:100BF000043E01101109053F050911110008180FE5
:100C000024140F00000F00003F0020222A32223F50
:100C100022322A2220000020100F10282423202F07
:100C2000282A2C00300F043D2515150D152D2424E0
:100C30000000070404041F24242427203800000097
:100C4000000000203F000000000000000000000045
:100C5000000000000000000000000000FFFF808096
:100C60008080808080808080808080808080808084
:100C70008080808080808080808080808080808074
:100C80008080808080808080808080808080808064
:100C90008080808080808080808080808080808054
:100CA0008080808080808080808080808080808044
:100CB0008080808080808080808080808080808034
:100CC0008080808080808080808080808080808024
:100CD000808080808080808080808080FFFF010114
:100CE00001010101010101010101010101010101F4
:100CF0008141212161010121E1E101E1E1210101C4
:100D0000010101010121E12121216101012121E1F3
:100D100001010101010101010101010101010101C3
:100D2000010101C1010101010101010101010101F3
:100D300001010101010101010101010101010101A3
:100D40002101010101010101010101010101010173
:100D5000010101010101010101010101FFFF000089
:100D60000000000000000000000000000000000083
:100D70000F1020241C0400203F013E013F200000F2
:100D80000000000000203F22222730000020203FEA
:100D9000202000001E2525251600001E21212113DC
:100DA0000001011F2121000000213F22210100003C
:100DB0001E2121211E00213F2201013E2000212170
:100DC0003F202000001E2121211300000000000010
:100DD000000000000000000000000000FFFF000015
:100DE0000000000000000000000000000000000003
:100DF000F0080404040C00F008040408F0000000EB
:100E000000000000000080800000000000000000E2
:100E100000000000000000000004FC0400000000CE
:100E2000000C04FC040C0004FC040408F0000000A6
:100E300000000000000000000000000000000000B2
:100E400000000000000000000000000000000000A2
:100E5000000000000000000000000000FFFF808094
:100E60008080808080808080808080808080808082
:100E7000818284848482808182848482818080864D
:100E80008680808080808583808080808080808054
:100E90008080808080808080808487848484868035
:100EA000808084878480808487848482818080801D
:100EB0008080808080808080808080808080808032
:100EC0008080808080808080808080808080808022
:100ED000808080808080808080808080FF00000013
:100EE000000F000800000020080000002801000892
:100EF000080F0008080000206006000044010008F8
:080F00000000000000000000E9
:04000005080000ED02
:00000001FF
